:03000000020008F3
:0300610002000397
:0500030012007680FEF2
:04006400AE82AF8336
:090068008E048F051EBEFF011F6E
:05007100EC4D70F322CC
:0E007600C280902710120064D28090271012D2
:04008400006480EEA6
:06003700E478FFF6D8FD9D
:080015007900E94400601B7A48
:05001D000090008C784A
:030022000075A0C6
:0A00250000E493F2A308B8000205FE
:08002F00A0D9F4DAF275A0FF7C
:08003D007800E84400600A7934
:030045000075A0A3
:0600480000E4F309D8FCFE
:08004E007800E84400600C7921
:0B00560000900000E4F0A3D8FCD9FAF1
:03000800758107F8
:0A000B00120088E582600302000382
:04008800758200225B
:00000001FF
